{
  "contractName": "CheckIftokenERC721",
  "abi": [
    {
      "inputs": [],
      "name": "res",
      "outputs": [
        {
          "internalType": "bool",
          "name": "",
          "type": "bool"
        }
      ],
      "stateMutability": "view",
      "type": "function"
    },
    {
      "inputs": [
        {
          "internalType": "address",
          "name": "_testSubject",
          "type": "address"
        }
      ],
      "name": "check",
      "outputs": [],
      "stateMutability": "nonpayable",
      "type": "function"
    }
  ],
  "bytecode": "0x608060405234801561001057600080fd5b506101a1806100206000396000f3fe608060405234801561001057600080fd5b50600436106100365760003560e01c80636f10e2851461003b578063c23697a814610063575b600080fd5b60005461004f90600160a01b900460ff1681565b604051901515815260200160405180910390f35b610076610071366004610119565b610078565b005b600080546001600160a01b0319166001600160a01b0383169081179091556040516301ffc9a760e01b81526380ac58cd60e01b60048201526301ffc9a790602401602060405180830381865afa1580156100d6573d6000803e3d6000fd5b505050506040513d601f19601f820116820180604052508101906100fa9190610149565b60008054911515600160a01b0260ff60a01b1990921691909117905550565b60006020828403121561012b57600080fd5b81356001600160a01b038116811461014257600080fd5b9392505050565b60006020828403121561015b57600080fd5b8151801515811461014257600080fdfea264697066735822122083e3b6a119c52e0ffee09d58553f0672fd2106b3680728ae75565736a03d3ae864736f6c634300080d0033",
  "immutableReferences": {},
  "source": "//SPDX-License-Identifier: MIT\r\npragma solidity 0.8.13; \r\n\r\nimport \"@openzeppelin/contracts/token/ERC721/extensions/IERC721Enumerable.sol\";\r\n\r\ncontract CheckIftokenERC721{\r\n  IERC721Enumerable testSubject;\r\n  bool public res;\r\n  function check(address _testSubject) public{\r\n      testSubject = IERC721Enumerable(_testSubject);\r\n      res = testSubject.supportsInterface(0x80ac58cd);\r\n  }\r\n}",
  "sourcePath": "C:\\Users\\IdeaSoft\\Desktop\\Staking project\\ERC721v3\\contracts\\MainContract.sol",
  "compiler": {
    "name": "solc",
    "version": "0.8.13+commit.abaa5c0e.Emscripten.clang"
  },
  "schemaVersion": "3.4.7",
  "updatedAt": "2022-05-05T06:09:42.872Z",
  "devdoc": {
    "kind": "dev",
    "methods": {},
    "version": 1
  },
  "userdoc": {
    "kind": "user",
    "methods": {},
    "version": 1
  }
}