{
  "contractName": "CreateToken",
  "abi": [
    {
      "inputs": [
        {
          "internalType": "string",
          "name": "name",
          "type": "string"
        },
        {
          "internalType": "string",
          "name": "symbol",
          "type": "string"
        }
      ],
      "stateMutability": "nonpayable",
      "type": "constructor"
    },
    {
      "anonymous": false,
      "inputs": [
        {
          "indexed": true,
          "internalType": "address",
          "name": "owner",
          "type": "address"
        },
        {
          "indexed": true,
          "internalType": "address",
          "name": "approved",
          "type": "address"
        },
        {
          "indexed": true,
          "internalType": "uint256",
          "name": "tokenId",
          "type": "uint256"
        }
      ],
      "name": "Approval",
      "type": "event"
    },
    {
      "anonymous": false,
      "inputs": [
        {
          "indexed": true,
          "internalType": "address",
          "name": "owner",
          "type": "address"
        },
        {
          "indexed": true,
          "internalType": "address",
          "name": "operator",
          "type": "address"
        },
        {
          "indexed": false,
          "internalType": "bool",
          "name": "approved",
          "type": "bool"
        }
      ],
      "name": "ApprovalForAll",
      "type": "event"
    },
    {
      "anonymous": false,
      "inputs": [
        {
          "indexed": true,
          "internalType": "address",
          "name": "from",
          "type": "address"
        },
        {
          "indexed": true,
          "internalType": "address",
          "name": "to",
          "type": "address"
        },
        {
          "indexed": true,
          "internalType": "uint256",
          "name": "tokenId",
          "type": "uint256"
        }
      ],
      "name": "Transfer",
      "type": "event"
    },
    {
      "inputs": [
        {
          "internalType": "address",
          "name": "to",
          "type": "address"
        },
        {
          "internalType": "uint256",
          "name": "tokenId",
          "type": "uint256"
        }
      ],
      "name": "approve",
      "outputs": [],
      "stateMutability": "nonpayable",
      "type": "function"
    },
    {
      "inputs": [
        {
          "internalType": "address",
          "name": "owner",
          "type": "address"
        }
      ],
      "name": "balanceOf",
      "outputs": [
        {
          "internalType": "uint256",
          "name": "",
          "type": "uint256"
        }
      ],
      "stateMutability": "view",
      "type": "function",
      "constant": true
    },
    {
      "inputs": [
        {
          "internalType": "uint256",
          "name": "tokenId",
          "type": "uint256"
        }
      ],
      "name": "getApproved",
      "outputs": [
        {
          "internalType": "address",
          "name": "",
          "type": "address"
        }
      ],
      "stateMutability": "view",
      "type": "function",
      "constant": true
    },
    {
      "inputs": [
        {
          "internalType": "address",
          "name": "owner",
          "type": "address"
        },
        {
          "internalType": "address",
          "name": "operator",
          "type": "address"
        }
      ],
      "name": "isApprovedForAll",
      "outputs": [
        {
          "internalType": "bool",
          "name": "",
          "type": "bool"
        }
      ],
      "stateMutability": "view",
      "type": "function",
      "constant": true
    },
    {
      "inputs": [],
      "name": "name",
      "outputs": [
        {
          "internalType": "string",
          "name": "",
          "type": "string"
        }
      ],
      "stateMutability": "view",
      "type": "function",
      "constant": true
    },
    {
      "inputs": [
        {
          "internalType": "uint256",
          "name": "tokenId",
          "type": "uint256"
        }
      ],
      "name": "ownerOf",
      "outputs": [
        {
          "internalType": "address",
          "name": "",
          "type": "address"
        }
      ],
      "stateMutability": "view",
      "type": "function",
      "constant": true
    },
    {
      "inputs": [
        {
          "internalType": "address",
          "name": "from",
          "type": "address"
        },
        {
          "internalType": "address",
          "name": "to",
          "type": "address"
        },
        {
          "internalType": "uint256",
          "name": "tokenId",
          "type": "uint256"
        }
      ],
      "name": "safeTransferFrom",
      "outputs": [],
      "stateMutability": "nonpayable",
      "type": "function"
    },
    {
      "inputs": [
        {
          "internalType": "address",
          "name": "from",
          "type": "address"
        },
        {
          "internalType": "address",
          "name": "to",
          "type": "address"
        },
        {
          "internalType": "uint256",
          "name": "tokenId",
          "type": "uint256"
        },
        {
          "internalType": "bytes",
          "name": "_data",
          "type": "bytes"
        }
      ],
      "name": "safeTransferFrom",
      "outputs": [],
      "stateMutability": "nonpayable",
      "type": "function"
    },
    {
      "inputs": [
        {
          "internalType": "address",
          "name": "operator",
          "type": "address"
        },
        {
          "internalType": "bool",
          "name": "approved",
          "type": "bool"
        }
      ],
      "name": "setApprovalForAll",
      "outputs": [],
      "stateMutability": "nonpayable",
      "type": "function"
    },
    {
      "inputs": [
        {
          "internalType": "bytes4",
          "name": "interfaceId",
          "type": "bytes4"
        }
      ],
      "name": "supportsInterface",
      "outputs": [
        {
          "internalType": "bool",
          "name": "",
          "type": "bool"
        }
      ],
      "stateMutability": "view",
      "type": "function",
      "constant": true
    },
    {
      "inputs": [],
      "name": "symbol",
      "outputs": [
        {
          "internalType": "string",
          "name": "",
          "type": "string"
        }
      ],
      "stateMutability": "view",
      "type": "function",
      "constant": true
    },
    {
      "inputs": [],
      "name": "tokenCounter",
      "outputs": [
        {
          "internalType": "uint256",
          "name": "",
          "type": "uint256"
        }
      ],
      "stateMutability": "view",
      "type": "function",
      "constant": true
    },
    {
      "inputs": [
        {
          "internalType": "address",
          "name": "from",
          "type": "address"
        },
        {
          "internalType": "address",
          "name": "to",
          "type": "address"
        },
        {
          "internalType": "uint256",
          "name": "tokenId",
          "type": "uint256"
        }
      ],
      "name": "transferFrom",
      "outputs": [],
      "stateMutability": "nonpayable",
      "type": "function"
    },
    {
      "inputs": [
        {
          "internalType": "string",
          "name": "_tokenURI",
          "type": "string"
        }
      ],
      "name": "mint",
      "outputs": [],
      "stateMutability": "nonpayable",
      "type": "function"
    },
    {
      "inputs": [
        {
          "internalType": "uint256",
          "name": "_tokenId",
          "type": "uint256"
        }
      ],
      "name": "tokenURI",
      "outputs": [
        {
          "internalType": "string",
          "name": "",
          "type": "string"
        }
      ],
      "stateMutability": "view",
      "type": "function",
      "constant": true
    }
  ],
  "bytecode": "0x60806040523480156200001157600080fd5b50604051620016e7380380620016e78339810160408190526200003491620001e7565b8151829082906200004d90600090602085019062000074565b5080516200006390600190602084019062000074565b50506000600755506200028d915050565b828054620000829062000251565b90600052602060002090601f016020900481019282620000a65760008555620000f1565b82601f10620000c157805160ff1916838001178555620000f1565b82800160010185558215620000f1579182015b82811115620000f1578251825591602001919060010190620000d4565b50620000ff92915062000103565b5090565b5b80821115620000ff576000815560010162000104565b634e487b7160e01b600052604160045260246000fd5b600082601f8301126200014257600080fd5b81516001600160401b03808211156200015f576200015f6200011a565b604051601f8301601f19908116603f011681019082821181831017156200018a576200018a6200011a565b81604052838152602092508683858801011115620001a757600080fd5b600091505b83821015620001cb5785820183015181830184015290820190620001ac565b83821115620001dd5760008385830101525b9695505050505050565b60008060408385031215620001fb57600080fd5b82516001600160401b03808211156200021357600080fd5b620002218683870162000130565b935060208501519150808211156200023857600080fd5b50620002478582860162000130565b9150509250929050565b600181811c908216806200026657607f821691505b6020821081036200028757634e487b7160e01b600052602260045260246000fd5b50919050565b61144a806200029d6000396000f3fe608060405234801561001057600080fd5b50600436106100f55760003560e01c806370a0823111610097578063c87b56dd11610066578063c87b56dd146101ff578063d082e38114610212578063d85d3d271461021b578063e985e9c51461022e57600080fd5b806370a08231146101b057806395d89b41146101d1578063a22cb465146101d9578063b88d4fde146101ec57600080fd5b8063095ea7b3116100d3578063095ea7b31461016257806323b872dd1461017757806342842e0e1461018a5780636352211e1461019d57600080fd5b806301ffc9a7146100fa57806306fdde0314610122578063081812fc14610137575b600080fd5b61010d610108366004610f39565b61026a565b60405190151581526020015b60405180910390f35b61012a6102bc565b6040516101199190610faa565b61014a610145366004610fbd565b61034e565b6040516001600160a01b039091168152602001610119565b610175610170366004610ff2565b6103e8565b005b61017561018536600461101c565b6104fd565b61017561019836600461101c565b61052e565b61014a6101ab366004610fbd565b610549565b6101c36101be366004611058565b6105c0565b604051908152602001610119565b61012a610647565b6101756101e7366004611073565b610656565b6101756101fa36600461113b565b610665565b61012a61020d366004610fbd565b61069d565b6101c360075481565b6101756102293660046111b7565b610772565b61010d61023c366004611200565b6001600160a01b03918216600090815260056020908152604080832093909416825291909152205460ff1690565b60006001600160e01b031982166380ac58cd60e01b148061029b57506001600160e01b03198216635b5e139f60e01b145b806102b657506301ffc9a760e01b6001600160e01b03198316145b92915050565b6060600080546102cb90611233565b80601f01602080910402602001604051908101604052809291908181526020018280546102f790611233565b80156103445780601f1061031957610100808354040283529160200191610344565b820191906000526020600020905b81548152906001019060200180831161032757829003601f168201915b5050505050905090565b6000818152600260205260408120546001600160a01b03166103cc5760405162461bcd60e51b815260206004820152602c60248201527f4552433732313a20617070726f76656420717565727920666f72206e6f6e657860448201526b34b9ba32b73a103a37b5b2b760a11b60648201526084015b60405180910390fd5b506000908152600460205260409020546001600160a01b031690565b60006103f382610549565b9050806001600160a01b0316836001600160a01b0316036104605760405162461bcd60e51b815260206004820152602160248201527f4552433732313a20617070726f76616c20746f2063757272656e74206f776e656044820152603960f91b60648201526084016103c3565b336001600160a01b038216148061047c575061047c813361023c565b6104ee5760405162461bcd60e51b815260206004820152603860248201527f4552433732313a20617070726f76652063616c6c6572206973206e6f74206f7760448201527f6e6572206e6f7220617070726f76656420666f7220616c6c000000000000000060648201526084016103c3565b6104f883836107a2565b505050565b6105073382610810565b6105235760405162461bcd60e51b81526004016103c39061126d565b6104f8838383610907565b6104f883838360405180602001604052806000815250610665565b6000818152600260205260408120546001600160a01b0316806102b65760405162461bcd60e51b815260206004820152602960248201527f4552433732313a206f776e657220717565727920666f72206e6f6e657869737460448201526832b73a103a37b5b2b760b91b60648201526084016103c3565b60006001600160a01b03821661062b5760405162461bcd60e51b815260206004820152602a60248201527f4552433732313a2062616c616e636520717565727920666f7220746865207a65604482015269726f206164647265737360b01b60648201526084016103c3565b506001600160a01b031660009081526003602052604090205490565b6060600180546102cb90611233565b610661338383610aa3565b5050565b61066f3383610810565b61068b5760405162461bcd60e51b81526004016103c39061126d565b61069784848484610b71565b50505050565b6000818152600260205260409020546060906001600160a01b03166106d45760405162461bcd60e51b81526004016103c3906112be565b600082815260066020526040902080546106ed90611233565b80601f016020809104026020016040519081016040528092919081815260200182805461071990611233565b80156107665780601f1061073b57610100808354040283529160200191610766565b820191906000526020600020905b81548152906001019060200180831161074957829003601f168201915b50505050509050919050565b61077e33600754610ba4565b61078a60075482610bbe565b6007805490600061079a83611320565b919050555050565b600081815260046020526040902080546001600160a01b0319166001600160a01b03841690811790915581906107d782610549565b6001600160a01b03167f8c5be1e5ebec7d5bd14f71427d1e84f3dd0314c0f7b2291e5b200ac8c7c3b92560405160405180910390a45050565b6000818152600260205260408120546001600160a01b03166108895760405162461bcd60e51b815260206004820152602c60248201527f4552433732313a206f70657261746f7220717565727920666f72206e6f6e657860448201526b34b9ba32b73a103a37b5b2b760a11b60648201526084016103c3565b600061089483610549565b9050806001600160a01b0316846001600160a01b031614806108db57506001600160a01b0380821660009081526005602090815260408083209388168352929052205460ff165b806108ff5750836001600160a01b03166108f48461034e565b6001600160a01b0316145b949350505050565b826001600160a01b031661091a82610549565b6001600160a01b03161461097e5760405162461bcd60e51b815260206004820152602560248201527f4552433732313a207472616e736665722066726f6d20696e636f72726563742060448201526437bbb732b960d91b60648201526084016103c3565b6001600160a01b0382166109e05760405162461bcd60e51b8152602060048201526024808201527f4552433732313a207472616e7366657220746f20746865207a65726f206164646044820152637265737360e01b60648201526084016103c3565b6109eb6000826107a2565b6001600160a01b0383166000908152600360205260408120805460019290610a14908490611339565b90915550506001600160a01b0382166000908152600360205260408120805460019290610a42908490611350565b909155505060008181526002602052604080822080546001600160a01b0319166001600160a01b0386811691821790925591518493918716917fddf252ad1be2c89b69c2b068fc378daa952ba7f163c4a11628f55a4df523b3ef91a4505050565b816001600160a01b0316836001600160a01b031603610b045760405162461bcd60e51b815260206004820152601960248201527f4552433732313a20617070726f766520746f2063616c6c65720000000000000060448201526064016103c3565b6001600160a01b03838116600081815260056020908152604080832094871680845294825291829020805460ff191686151590811790915591519182527f17307eab39ab6107e8899845ad3d59bd9653f200f220920489ca2b5937696c31910160405180910390a3505050565b610b7c848484610907565b610b8884848484610c11565b6106975760405162461bcd60e51b81526004016103c390611368565b610661828260405180602001604052806000815250610d12565b6000828152600260205260409020546001600160a01b0316610bf25760405162461bcd60e51b81526004016103c3906112be565b600082815260066020908152604090912082516104f892840190610e87565b60006001600160a01b0384163b15610d0757604051630a85bd0160e11b81526001600160a01b0385169063150b7a0290610c559033908990889088906004016113ba565b6020604051808303816000875af1925050508015610c90575060408051601f3d908101601f19168201909252610c8d918101906113f7565b60015b610ced573d808015610cbe576040519150601f19603f3d011682016040523d82523d6000602084013e610cc3565b606091505b508051600003610ce55760405162461bcd60e51b81526004016103c390611368565b805181602001fd5b6001600160e01b031916630a85bd0160e11b1490506108ff565b506001949350505050565b610d1c8383610d45565b610d296000848484610c11565b6104f85760405162461bcd60e51b81526004016103c390611368565b6001600160a01b038216610d9b5760405162461bcd60e51b815260206004820181905260248201527f4552433732313a206d696e7420746f20746865207a65726f206164647265737360448201526064016103c3565b6000818152600260205260409020546001600160a01b031615610e005760405162461bcd60e51b815260206004820152601c60248201527f4552433732313a20746f6b656e20616c7265616479206d696e7465640000000060448201526064016103c3565b6001600160a01b0382166000908152600360205260408120805460019290610e29908490611350565b909155505060008181526002602052604080822080546001600160a01b0319166001600160a01b03861690811790915590518392907fddf252ad1be2c89b69c2b068fc378daa952ba7f163c4a11628f55a4df523b3ef908290a45050565b828054610e9390611233565b90600052602060002090601f016020900481019282610eb55760008555610efb565b82601f10610ece57805160ff1916838001178555610efb565b82800160010185558215610efb579182015b82811115610efb578251825591602001919060010190610ee0565b50610f07929150610f0b565b5090565b5b80821115610f075760008155600101610f0c565b6001600160e01b031981168114610f3657600080fd5b50565b600060208284031215610f4b57600080fd5b8135610f5681610f20565b9392505050565b6000815180845260005b81811015610f8357602081850181015186830182015201610f67565b81811115610f95576000602083870101525b50601f01601f19169290920160200192915050565b602081526000610f566020830184610f5d565b600060208284031215610fcf57600080fd5b5035919050565b80356001600160a01b0381168114610fed57600080fd5b919050565b6000806040838503121561100557600080fd5b61100e83610fd6565b946020939093013593505050565b60008060006060848603121561103157600080fd5b61103a84610fd6565b925061104860208501610fd6565b9150604084013590509250925092565b60006020828403121561106a57600080fd5b610f5682610fd6565b6000806040838503121561108657600080fd5b61108f83610fd6565b9150602083013580151581146110a457600080fd5b809150509250929050565b634e487b7160e01b600052604160045260246000fd5b600067ffffffffffffffff808411156110e0576110e06110af565b604051601f8501601f19908116603f01168101908282118183101715611108576111086110af565b8160405280935085815286868601111561112157600080fd5b858560208301376000602087830101525050509392505050565b6000806000806080858703121561115157600080fd5b61115a85610fd6565b935061116860208601610fd6565b925060408501359150606085013567ffffffffffffffff81111561118b57600080fd5b8501601f8101871361119c57600080fd5b6111ab878235602084016110c5565b91505092959194509250565b6000602082840312156111c957600080fd5b813567ffffffffffffffff8111156111e057600080fd5b8201601f810184136111f157600080fd5b6108ff848235602084016110c5565b6000806040838503121561121357600080fd5b61121c83610fd6565b915061122a60208401610fd6565b90509250929050565b600181811c9082168061124757607f821691505b60208210810361126757634e487b7160e01b600052602260045260246000fd5b50919050565b60208082526031908201527f4552433732313a207472616e736665722063616c6c6572206973206e6f74206f6040820152701ddb995c881b9bdc88185c1c1c9bdd9959607a1b606082015260800190565b6020808252602c908201527f4552433732314d657461646174613a2055524920736574206f66206e6f6e657860408201526b34b9ba32b73a103a37b5b2b760a11b606082015260800190565b634e487b7160e01b600052601160045260246000fd5b6000600182016113325761133261130a565b5060010190565b60008282101561134b5761134b61130a565b500390565b600082198211156113635761136361130a565b500190565b60208082526032908201527f4552433732313a207472616e7366657220746f206e6f6e20455243373231526560408201527131b2b4bb32b91034b6b83632b6b2b73a32b960711b606082015260800190565b6001600160a01b03858116825284166020820152604081018390526080606082018190526000906113ed90830184610f5d565b9695505050505050565b60006020828403121561140957600080fd5b8151610f5681610f2056fea26469706673582212208bb2e3214b13a557a04b042fa9058ccac12f9d060035c63805c3609047eb51e364736f6c634300080d0033",
  "immutableReferences": {},
  "source": "//SPDX-License-Identifier: MIT\r\npragma solidity 0.8.13; \r\n\r\nimport \"@openzeppelin/contracts/token/ERC721/ERC721.sol\";\r\n\r\ncontract CreateToken is ERC721 {\r\n    mapping (uint256 => string) private _tokenURIs;\r\n    uint256 public tokenCounter;\r\n\r\n     constructor(string memory name, string memory symbol) ERC721(name, symbol) {\r\n        tokenCounter = 0;\r\n     }\r\n     function mint(string memory _tokenURI) public {\r\n    _safeMint(msg.sender, tokenCounter);\r\n    _setTokenURI(tokenCounter, _tokenURI);\r\n    tokenCounter++;\r\n    }\r\n    function _setTokenURI(uint256 _tokenId, string memory _tokenURI) internal virtual {\r\n        require(_exists(_tokenId), \"ERC721Metadata: URI set of nonexistent token\");  // Checks if the tokenId exists\r\n        _tokenURIs[_tokenId] = _tokenURI;\r\n    }\r\n    function tokenURI(uint256 _tokenId) public view virtual override returns(string memory) {\r\n        require(_exists(_tokenId),\"ERC721Metadata: URI set of nonexistent token\");\r\n        return _tokenURIs[_tokenId];\r\n    }\r\n}",
  "sourcePath": "C:\\Users\\IdeaSoft\\Desktop\\Staking project\\ERC721v3\\contracts\\CreateToken.sol",
  "compiler": {
    "name": "solc",
    "version": "0.8.13+commit.abaa5c0e.Emscripten.clang"
  },
  "schemaVersion": "3.4.7",
  "updatedAt": "2022-05-05T06:10:03.087Z",
  "networkType": "ethereum",
  "devdoc": {
    "kind": "dev",
    "methods": {
      "approve(address,uint256)": {
        "details": "See {IERC721-approve}."
      },
      "balanceOf(address)": {
        "details": "See {IERC721-balanceOf}."
      },
      "getApproved(uint256)": {
        "details": "See {IERC721-getApproved}."
      },
      "isApprovedForAll(address,address)": {
        "details": "See {IERC721-isApprovedForAll}."
      },
      "name()": {
        "details": "See {IERC721Metadata-name}."
      },
      "ownerOf(uint256)": {
        "details": "See {IERC721-ownerOf}."
      },
      "safeTransferFrom(address,address,uint256)": {
        "details": "See {IERC721-safeTransferFrom}."
      },
      "safeTransferFrom(address,address,uint256,bytes)": {
        "details": "See {IERC721-safeTransferFrom}."
      },
      "setApprovalForAll(address,bool)": {
        "details": "See {IERC721-setApprovalForAll}."
      },
      "supportsInterface(bytes4)": {
        "details": "See {IERC165-supportsInterface}."
      },
      "symbol()": {
        "details": "See {IERC721Metadata-symbol}."
      },
      "transferFrom(address,address,uint256)": {
        "details": "See {IERC721-transferFrom}."
      }
    },
    "version": 1
  },
  "userdoc": {
    "kind": "user",
    "methods": {},
    "version": 1
  }
}